{
  "contractName": "EventRSVP",
  "abi": [
    {
      "inputs": [],
      "payable": false,
      "stateMutability": "nonpayable",
      "type": "constructor"
    },
    {
      "anonymous": false,
      "inputs": [
        {
          "indexed": false,
          "internalType": "uint256",
          "name": "eventId",
          "type": "uint256"
        },
        {
          "indexed": false,
          "internalType": "string",
          "name": "name",
          "type": "string"
        },
        {
          "indexed": false,
          "internalType": "address",
          "name": "creator",
          "type": "address"
        },
        {
          "indexed": false,
          "internalType": "string",
          "name": "imageUrl",
          "type": "string"
        }
      ],
      "name": "EventCreated",
      "type": "event"
    },
    {
      "anonymous": false,
      "inputs": [
        {
          "indexed": false,
          "internalType": "uint256",
          "name": "eventId",
          "type": "uint256"
        },
        {
          "indexed": false,
          "internalType": "address",
          "name": "attendee",
          "type": "address"
        }
      ],
      "name": "RSVPConfirmed",
      "type": "event"
    },
    {
      "constant": true,
      "inputs": [],
      "name": "RSVP_FEE",
      "outputs": [
        {
          "internalType": "uint256",
          "name": "",
          "type": "uint256"
        }
      ],
      "payable": false,
      "stateMutability": "view",
      "type": "function"
    },
    {
      "constant": true,
      "inputs": [],
      "name": "eventCount",
      "outputs": [
        {
          "internalType": "uint256",
          "name": "",
          "type": "uint256"
        }
      ],
      "payable": false,
      "stateMutability": "view",
      "type": "function"
    },
    {
      "constant": true,
      "inputs": [
        {
          "internalType": "uint256",
          "name": "",
          "type": "uint256"
        }
      ],
      "name": "events",
      "outputs": [
        {
          "internalType": "string",
          "name": "name",
          "type": "string"
        },
        {
          "internalType": "address",
          "name": "creator",
          "type": "address"
        },
        {
          "internalType": "uint256",
          "name": "rsvpFee",
          "type": "uint256"
        },
        {
          "internalType": "string",
          "name": "imageUrl",
          "type": "string"
        }
      ],
      "payable": false,
      "stateMutability": "view",
      "type": "function"
    },
    {
      "constant": true,
      "inputs": [
        {
          "internalType": "uint256",
          "name": "",
          "type": "uint256"
        },
        {
          "internalType": "address",
          "name": "",
          "type": "address"
        }
      ],
      "name": "hasRSVPed",
      "outputs": [
        {
          "internalType": "bool",
          "name": "",
          "type": "bool"
        }
      ],
      "payable": false,
      "stateMutability": "view",
      "type": "function"
    },
    {
      "constant": true,
      "inputs": [
        {
          "internalType": "uint256",
          "name": "",
          "type": "uint256"
        },
        {
          "internalType": "uint256",
          "name": "",
          "type": "uint256"
        }
      ],
      "name": "votingOptions",
      "outputs": [
        {
          "internalType": "string",
          "name": "",
          "type": "string"
        }
      ],
      "payable": false,
      "stateMutability": "view",
      "type": "function"
    },
    {
      "constant": false,
      "inputs": [
        {
          "internalType": "string",
          "name": "_name",
          "type": "string"
        },
        {
          "internalType": "string[]",
          "name": "_votingOptions",
          "type": "string[]"
        },
        {
          "internalType": "string",
          "name": "_imageUrl",
          "type": "string"
        }
      ],
      "name": "createEvent",
      "outputs": [],
      "payable": false,
      "stateMutability": "nonpayable",
      "type": "function"
    },
    {
      "constant": false,
      "inputs": [
        {
          "internalType": "uint256",
          "name": "_eventId",
          "type": "uint256"
        }
      ],
      "name": "rsvp",
      "outputs": [],
      "payable": true,
      "stateMutability": "payable",
      "type": "function"
    },
    {
      "constant": true,
      "inputs": [],
      "name": "getAllEvents",
      "outputs": [
        {
          "components": [
            {
              "internalType": "string",
              "name": "name",
              "type": "string"
            },
            {
              "internalType": "address",
              "name": "creator",
              "type": "address"
            },
            {
              "internalType": "uint256",
              "name": "rsvpFee",
              "type": "uint256"
            },
            {
              "internalType": "string[]",
              "name": "votingOptions",
              "type": "string[]"
            },
            {
              "internalType": "string",
              "name": "imageUrl",
              "type": "string"
            }
          ],
          "internalType": "struct EventRSVP.Event[]",
          "name": "",
          "type": "tuple[]"
        }
      ],
      "payable": false,
      "stateMutability": "view",
      "type": "function"
    },
    {
      "constant": true,
      "inputs": [
        {
          "internalType": "uint256",
          "name": "_eventId",
          "type": "uint256"
        }
      ],
      "name": "getEventDetails",
      "outputs": [
        {
          "internalType": "string",
          "name": "",
          "type": "string"
        },
        {
          "internalType": "address",
          "name": "",
          "type": "address"
        },
        {
          "internalType": "uint256",
          "name": "",
          "type": "uint256"
        },
        {
          "internalType": "string[]",
          "name": "",
          "type": "string[]"
        },
        {
          "internalType": "string",
          "name": "",
          "type": "string"
        }
      ],
      "payable": false,
      "stateMutability": "view",
      "type": "function"
    },
    {
      "constant": true,
      "inputs": [
        {
          "internalType": "uint256",
          "name": "",
          "type": "uint256"
        }
      ],
      "name": "eventFunds",
      "outputs": [
        {
          "internalType": "uint256",
          "name": "",
          "type": "uint256"
        }
      ],
      "payable": false,
      "stateMutability": "view",
      "type": "function"
    },
    {
      "constant": true,
      "inputs": [
        {
          "internalType": "uint256",
          "name": "_eventId",
          "type": "uint256"
        },
        {
          "internalType": "address",
          "name": "_user",
          "type": "address"
        }
      ],
      "name": "hasUserRSVPed",
      "outputs": [
        {
          "internalType": "bool",
          "name": "",
          "type": "bool"
        }
      ],
      "payable": false,
      "stateMutability": "view",
      "type": "function"
    }
  ],
  "bytecode": "0x608060405234801561001057600080fd5b5060008081905550611ea7806100276000396000f3fe60806040526004361061009c5760003560e01c8063a85f974d11610064578063a85f974d146101af578063b7b492f7146101ec578063c27a500d14610208578063c761e71314610233578063c9db720c14610270578063ec38d5a01461029b5761009c565b80630b791430146100a15780636aa8ba84146100e15780636e81cc831461011e57806371be2e4a1461015b57806392c76dfc14610186575b600080fd5b3480156100ad57600080fd5b506100c860048036036100c3919081019061146d565b6102dc565b6040516100d89493929190611a4b565b60405180910390f35b3480156100ed57600080fd5b50610108600480360361010391908101906114d2565b61045c565b60405161011591906119c1565b60405180910390f35b34801561012a57600080fd5b5061014560048036036101409190810190611496565b610522565b60405161015291906119a6565b60405180910390f35b34801561016757600080fd5b50610170610551565b60405161017d9190611b3e565b60405180910390f35b34801561019257600080fd5b506101ad60048036036101a891908101906113d6565b610557565b005b3480156101bb57600080fd5b506101d660048036036101d1919081019061146d565b610761565b6040516101e39190611b3e565b60405180910390f35b6102066004803603610201919081019061146d565b61076b565b005b34801561021457600080fd5b5061021d610949565b60405161022a9190611984565b60405180910390f35b34801561023f57600080fd5b5061025a60048036036102559190810190611496565b610c75565b60405161026791906119a6565b60405180910390f35b34801561027c57600080fd5b50610285610cdd565b6040516102929190611b3e565b60405180910390f35b3480156102a757600080fd5b506102c260048036036102bd919081019061146d565b610ce9565b6040516102d39594939291906119e3565b60405180910390f35b6001602052806000526040600020600091509050806000018054600181600116156101000203166002900480601f0160208091040260200160405190810160405280929190818152602001828054600181600116156101000203166002900480156103885780601f1061035d57610100808354040283529160200191610388565b820191906000526020600020905b81548152906001019060200180831161036b57829003601f168201915b5050505050908060010160009054906101000a900473ffffffffffffffffffffffffffffffffffffffff1690806002015490806004018054600181600116156101000203166002900480601f0160208091040260200160405190810160405280929190818152602001828054600181600116156101000203166002900480156104525780601f1061042757610100808354040283529160200191610452565b820191906000526020600020905b81548152906001019060200180831161043557829003601f168201915b5050505050905084565b6002602052816000526040600020818154811061047557fe5b90600052602060002001600091509150508054600181600116156101000203166002900480601f01602080910402602001604051908101604052809291908181526020018280546001816001161561010002031660029004801561051a5780601f106104ef5761010080835404028352916020019161051a565b820191906000526020600020905b8154815290600101906020018083116104fd57829003601f168201915b505050505081565b60036020528160005260406000206020528060005260406000206000915091509054906101000a900460ff1681565b60005481565b600083511161059b576040517f08c379a000000000000000000000000000000000000000000000000000000000815260040161059290611b1e565b60405180910390fd5b60008251116105df576040517f08c379a00000000000000000000000000000000000000000000000000000000081526004016105d690611ade565b60405180910390fd5b60008081548092919060010191905055506040518060a001604052808481526020013373ffffffffffffffffffffffffffffffffffffffff16815260200167016345785d8a00008152602001838152602001828152506001600080548152602001908152602001600020600082015181600001908051906020019061066592919061102d565b5060208201518160010160006101000a81548173ffffffffffffffffffffffffffffffffffffffff021916908373ffffffffffffffffffffffffffffffffffffffff1602179055506040820151816002015560608201518160030190805190602001906106d39291906110ad565b5060808201518160040190805190602001906106f092919061102d565b50905050816002600080548152602001908152602001600020908051906020019061071c92919061110d565b507f56942cf6f49ba314343830c7c5ad9741f13219afaa9006b86f2964168defaba36000548433846040516107549493929190611b82565b60405180910390a1505050565b6000479050919050565b60008111801561077d57506000548111155b6107bc576040517f08c379a00000000000000000000000000000000000000000000000000000000081526004016107b390611afe565b60405180910390fd5b67016345785d8a00003414610806576040517f08c379a00000000000000000000000000000000000000000000000000000000081526004016107fd90611a9e565b60405180910390fd5b6003600082815260200190815260200160002060003373ffffffffffffffffffffffffffffffffffffffff1673ffffffffffffffffffffffffffffffffffffffff16815260200190815260200160002060009054906101000a900460ff16156108a4576040517f08c379a000000000000000000000000000000000000000000000000000000000815260040161089b90611abe565b60405180910390fd5b60016003600083815260200190815260200160002060003373ffffffffffffffffffffffffffffffffffffffff1673ffffffffffffffffffffffffffffffffffffffff16815260200190815260200160002060006101000a81548160ff0219169083151502179055507f70a1fa5cdaf1deb095899ac5d16407e9d2f1200bfa7adb1e015f261f9ddacde2813360405161093e929190611b59565b60405180910390a150565b60608060005460405190808252806020026020018201604052801561098857816020015b61097561116d565b81526020019060019003908161096d5790505b50905060008090505b600054811015610c6d57600160006001830181526020019081526020016000206040518060a0016040529081600082018054600181600116156101000203166002900480601f016020809104026020016040519081016040528092919081815260200182805460018160011615610100020316600290048015610a555780601f10610a2a57610100808354040283529160200191610a55565b820191906000526020600020905b815481529060010190602001808311610a3857829003601f168201915b505050505081526020016001820160009054906101000a900473ffffffffffffffffffffffffffffffffffffffff1673ffffffffffffffffffffffffffffffffffffffff1673ffffffffffffffffffffffffffffffffffffffff1681526020016002820154815260200160038201805480602002602001604051908101604052809291908181526020016000905b82821015610b9f578382906000526020600020018054600181600116156101000203166002900480601f016020809104026020016040519081016040528092919081815260200182805460018160011615610100020316600290048015610b8b5780601f10610b6057610100808354040283529160200191610b8b565b820191906000526020600020905b815481529060010190602001808311610b6e57829003601f168201915b505050505081526020019060010190610ae3565b505050508152602001600482018054600181600116156101000203166002900480601f016020809104026020016040519081016040528092919081815260200182805460018160011615610100020316600290048015610c405780601f10610c1557610100808354040283529160200191610c40565b820191906000526020600020905b815481529060010190602001808311610c2357829003601f168201915b505050505081525050828281518110610c5557fe5b60200260200101819052508080600101915050610991565b508091505090565b60006003600084815260200190815260200160002060008373ffffffffffffffffffffffffffffffffffffffff1673ffffffffffffffffffffffffffffffffffffffff16815260200190815260200160002060009054906101000a900460ff16905092915050565b67016345785d8a000081565b6060600080606080600086118015610d0357506000548611155b610d42576040517f08c379a0000000000000000000000000000000000000000000000000000000008152600401610d3990611afe565b60405180910390fd5b610d4a6111b2565b600160008881526020019081526020016000206040518060a0016040529081600082018054600181600116156101000203166002900480601f016020809104026020016040519081016040528092919081815260200182805460018160011615610100020316600290048015610e015780601f10610dd657610100808354040283529160200191610e01565b820191906000526020600020905b815481529060010190602001808311610de457829003601f168201915b505050505081526020016001820160009054906101000a900473ffffffffffffffffffffffffffffffffffffffff1673ffffffffffffffffffffffffffffffffffffffff1673ffffffffffffffffffffffffffffffffffffffff1681526020016002820154815260200160038201805480602002602001604051908101604052809291908181526020016000905b82821015610f4b578382906000526020600020018054600181600116156101000203166002900480601f016020809104026020016040519081016040528092919081815260200182805460018160011615610100020316600290048015610f375780601f10610f0c57610100808354040283529160200191610f37565b820191906000526020600020905b815481529060010190602001808311610f1a57829003601f168201915b505050505081526020019060010190610e8f565b505050508152602001600482018054600181600116156101000203166002900480601f016020809104026020016040519081016040528092919081815260200182805460018160011615610100020316600290048015610fec5780601f10610fc157610100808354040283529160200191610fec565b820191906000526020600020905b815481529060010190602001808311610fcf57829003601f168201915b505050505081525050905080600001518160200151826040015183606001518460800151849450819150809050955095509550955095505091939590929450565b828054600181600116156101000203166002900490600052602060002090601f016020900481019282601f1061106e57805160ff191683800117855561109c565b8280016001018555821561109c579182015b8281111561109b578251825591602001919060010190611080565b5b5090506110a991906111f7565b5090565b8280548282559060005260206000209081019282156110fc579160200282015b828111156110fb5782518290805190602001906110eb92919061102d565b50916020019190600101906110cd565b5b509050611109919061121c565b5090565b82805482825590600052602060002090810192821561115c579160200282015b8281111561115b57825182908051906020019061114b92919061102d565b509160200191906001019061112d565b5b509050611169919061121c565b5090565b6040518060a0016040528060608152602001600073ffffffffffffffffffffffffffffffffffffffff1681526020016000815260200160608152602001606081525090565b6040518060a0016040528060608152602001600073ffffffffffffffffffffffffffffffffffffffff1681526020016000815260200160608152602001606081525090565b61121991905b808211156112155760008160009055506001016111fd565b5090565b90565b61124591905b8082111561124157600081816112389190611248565b50600101611222565b5090565b90565b50805460018160011615610100020316600290046000825580601f1061126e575061128d565b601f01602090049060005260206000209081019061128c91906111f7565b5b50565b60008135905061129f81611e36565b92915050565b600082601f8301126112b657600080fd5b81356112c96112c482611c02565b611bd5565b9150818183526020840193506020810190508360005b8381101561130f57813586016112f58882611319565b8452602084019350602083019250506001810190506112df565b5050505092915050565b600082601f83011261132a57600080fd5b813561133d61133882611c2a565b611bd5565b9150808252602083016020830185838301111561135957600080fd5b611364838284611de3565b50505092915050565b600082601f83011261137e57600080fd5b813561139161138c82611c56565b611bd5565b915080825260208301602083018583830111156113ad57600080fd5b6113b8838284611de3565b50505092915050565b6000813590506113d081611e4d565b92915050565b6000806000606084860312156113eb57600080fd5b600084013567ffffffffffffffff81111561140557600080fd5b6114118682870161136d565b935050602084013567ffffffffffffffff81111561142e57600080fd5b61143a868287016112a5565b925050604084013567ffffffffffffffff81111561145757600080fd5b6114638682870161136d565b9150509250925092565b60006020828403121561147f57600080fd5b600061148d848285016113c1565b91505092915050565b600080604083850312156114a957600080fd5b60006114b7858286016113c1565b92505060206114c885828601611290565b9150509250929050565b600080604083850312156114e557600080fd5b60006114f3858286016113c1565b9250506020611504858286016113c1565b9150509250929050565b600061151a838361170a565b905092915050565b600061152e83836118e2565b905092915050565b61153f81611dad565b82525050565b61154e81611d65565b82525050565b61155d81611d65565b82525050565b600061156e82611cbd565b6115788185611d21565b93508360208202850161158a85611c92565b8060005b858110156115c657848403895281516115a7858261150e565b94506115b283611cf6565b925060208a0199505060018101905061158e565b50829750879550505050505092915050565b60006115e382611cb2565b6115ed8185611d10565b9350836020820285016115ff85611c82565b8060005b8581101561163b578484038952815161161c858261150e565b945061162783611ce9565b925060208a01995050600181019050611603565b50829750879550505050505092915050565b600061165882611cc8565b6116628185611d32565b93508360208202850161167485611ca2565b8060005b858110156116b057848403895281516116918582611522565b945061169c83611d03565b925060208a01995050600181019050611678565b50829750879550505050505092915050565b6116cb81611d77565b82525050565b60006116dc82611cde565b6116e68185611d54565b93506116f6818560208601611df2565b6116ff81611e25565b840191505092915050565b600061171582611cd3565b61171f8185611d43565b935061172f818560208601611df2565b61173881611e25565b840191505092915050565b600061174e82611cd3565b6117588185611d54565b9350611768818560208601611df2565b61177181611e25565b840191505092915050565b6000611789601283611d54565b91507f496e636f727265637420525356502066656500000000000000000000000000006000830152602082019050919050565b60006117c9601d83611d54565b91507f416c72656164792052535650656420666f722074686973206576656e740000006000830152602082019050919050565b6000611809602383611d54565b91507f4174206c65617374206f6e6520766f74696e67206f7074696f6e20726571756960008301527f72656400000000000000000000000000000000000000000000000000000000006020830152604082019050919050565b600061186f601083611d54565b91507f496e76616c6964206576656e74204944000000000000000000000000000000006000830152602082019050919050565b60006118af601a83611d54565b91507f4576656e74206e616d652063616e6e6f7420626520656d7074790000000000006000830152602082019050919050565b600060a08301600083015184820360008601526118ff828261170a565b91505060208301516119146020860182611545565b5060408301516119276040860182611966565b506060830151848203606086015261193f82826115d8565b91505060808301518482036080860152611959828261170a565b9150508091505092915050565b61196f81611da3565b82525050565b61197e81611da3565b82525050565b6000602082019050818103600083015261199e818461164d565b905092915050565b60006020820190506119bb60008301846116c2565b92915050565b600060208201905081810360008301526119db8184611743565b905092915050565b600060a08201905081810360008301526119fd81886116d1565b9050611a0c6020830187611554565b611a196040830186611975565b8181036060830152611a2b8185611563565b90508181036080830152611a3f81846116d1565b90509695505050505050565b60006080820190508181036000830152611a658187611743565b9050611a746020830186611554565b611a816040830185611975565b8181036060830152611a938184611743565b905095945050505050565b60006020820190508181036000830152611ab78161177c565b9050919050565b60006020820190508181036000830152611ad7816117bc565b9050919050565b60006020820190508181036000830152611af7816117fc565b9050919050565b60006020820190508181036000830152611b1781611862565b9050919050565b60006020820190508181036000830152611b37816118a2565b9050919050565b6000602082019050611b536000830184611975565b92915050565b6000604082019050611b6e6000830185611975565b611b7b6020830184611536565b9392505050565b6000608082019050611b976000830187611975565b8181036020830152611ba981866116d1565b9050611bb86040830185611536565b8181036060830152611bca81846116d1565b905095945050505050565b6000604051905081810181811067ffffffffffffffff82111715611bf857600080fd5b8060405250919050565b600067ffffffffffffffff821115611c1957600080fd5b602082029050602081019050919050565b600067ffffffffffffffff821115611c4157600080fd5b601f19601f8301169050602081019050919050565b600067ffffffffffffffff821115611c6d57600080fd5b601f19601f8301169050602081019050919050565b6000819050602082019050919050565b6000819050602082019050919050565b6000819050602082019050919050565b600081519050919050565b600081519050919050565b600081519050919050565b600081519050919050565b600081519050919050565b6000602082019050919050565b6000602082019050919050565b6000602082019050919050565b600082825260208201905092915050565b600082825260208201905092915050565b600082825260208201905092915050565b600082825260208201905092915050565b600082825260208201905092915050565b6000611d7082611d83565b9050919050565b60008115159050919050565b600073ffffffffffffffffffffffffffffffffffffffff82169050919050565b6000819050919050565b6000611db882611dbf565b9050919050565b6000611dca82611dd1565b9050919050565b6000611ddc82611d83565b9050919050565b82818337600083830152505050565b60005b83811015611e10578082015181840152602081019050611df5565b83811115611e1f576000848401525b50505050565b6000601f19601f8301169050919050565b611e3f81611d65565b8114611e4a57600080fd5b50565b611e5681611da3565b8114611e6157600080fd5b5056fea365627a7a723158203823e8871be26b9460e9982e7c65de11b1a093fcce653fc9b087fb76d9f5d7f96c6578706572696d656e74616cf564736f6c63430005100040",
  "source": "pragma solidity ^0.5.16;\r\npragma experimental ABIEncoderV2;\r\n\r\ncontract EventRSVP {\r\n    uint256 public constant RSVP_FEE = 0.1 ether;\r\n    uint256 public eventCount;\r\n\r\n    struct Event {\r\n        string name;\r\n        address creator;\r\n        uint256 rsvpFee;\r\n        string[] votingOptions;\r\n        string imageUrl;\r\n    }\r\n\r\n    mapping(uint256 => Event) public events;\r\n    mapping(uint256 => string[]) public votingOptions;\r\n    mapping(uint256 => mapping(address => bool)) public hasRSVPed;\r\n\r\n    event EventCreated(uint256 eventId, string name, address creator, string imageUrl);\r\n    event RSVPConfirmed(uint256 eventId, address attendee);\r\n\r\n    constructor() public {\r\n        eventCount = 0;\r\n    }\r\n\r\n    function createEvent(string memory _name, string[] memory _votingOptions, string memory _imageUrl) public {\r\n        require(bytes(_name).length > 0, \"Event name cannot be empty\");\r\n        require(_votingOptions.length > 0, \"At least one voting option required\");\r\n        eventCount++;\r\n        events[eventCount] = Event(_name, msg.sender, RSVP_FEE, _votingOptions, _imageUrl);\r\n        votingOptions[eventCount] = _votingOptions;\r\n        emit EventCreated(eventCount, _name, msg.sender, _imageUrl);\r\n    }\r\n\r\n    function rsvp(uint256 _eventId) public payable {\r\n        require(_eventId > 0 && _eventId <= eventCount, \"Invalid event ID\");\r\n        require(msg.value == RSVP_FEE, \"Incorrect RSVP fee\");\r\n        require(!hasRSVPed[_eventId][msg.sender], \"Already RSVPed for this event\");\r\n        hasRSVPed[_eventId][msg.sender] = true;\r\n        emit RSVPConfirmed(_eventId, msg.sender);\r\n    }\r\n\r\n    function getAllEvents() public view returns (Event[] memory) {\r\n        Event[] memory allEvents = new Event[](eventCount);\r\n        for (uint256 i = 0; i < eventCount; i++) {\r\n            allEvents[i] = events[i + 1];\r\n        }\r\n        return allEvents;\r\n    }\r\n\r\n    function getEventDetails(uint256 _eventId) public view returns (string memory, address, uint256, string[] memory, string memory) {\r\n        require(_eventId > 0 && _eventId <= eventCount, \"Invalid event ID\");\r\n        Event memory evt = events[_eventId];\r\n        return (evt.name, evt.creator, evt.rsvpFee, evt.votingOptions, evt.imageUrl);\r\n    }\r\n\r\n    function eventFunds(uint256) public view returns (uint256) {\r\n        return address(this).balance;\r\n    }\r\n\r\n    function hasUserRSVPed(uint256 _eventId, address _user) public view returns (bool) {\r\n        return hasRSVPed[_eventId][_user];\r\n    }\r\n}",
  "sourcePath": "C:\\Users\\sansk\\OneDrive\\Desktop\\coding\\CN6035\\DAPP\\EventsRSVP\\contracts\\EventRSVP.sol",
  "compiler": {
    "name": "solc",
    "version": "0.5.16+commit.9c3226ce.Emscripten.clang"
  },
  "schemaVersion": "3.4.16",
  "updatedAt": "2025-04-24T22:25:56.506Z",
  "networkType": "ethereum",
  "devdoc": {
    "methods": {}
  },
  "userdoc": {
    "methods": {}
  }
}